{
  "_format": "hh3-artifact-1",
  "contractName": "DailyTaskLogger",
  "sourceName": "contracts/DailyTaskLogger.sol",
  "abi": [
    {
      "inputs": [],
      "stateMutability": "nonpayable",
      "type": "constructor"
    },
    {
      "anonymous": false,
      "inputs": [
        {
          "indexed": true,
          "internalType": "string",
          "name": "userAndDate",
          "type": "string"
        },
        {
          "indexed": false,
          "internalType": "string",
          "name": "taskHash",
          "type": "string"
        },
        {
          "indexed": false,
          "internalType": "uint256",
          "name": "timestamp",
          "type": "uint256"
        }
      ],
      "name": "HashSaved",
      "type": "event"
    },
    {
      "inputs": [
        {
          "internalType": "string",
          "name": "_userAndDate",
          "type": "string"
        }
      ],
      "name": "getDailyHash",
      "outputs": [
        {
          "internalType": "string",
          "name": "",
          "type": "string"
        }
      ],
      "stateMutability": "view",
      "type": "function"
    },
    {
      "inputs": [],
      "name": "owner",
      "outputs": [
        {
          "internalType": "address",
          "name": "",
          "type": "address"
        }
      ],
      "stateMutability": "view",
      "type": "function"
    },
    {
      "inputs": [
        {
          "internalType": "string",
          "name": "_userAndDate",
          "type": "string"
        },
        {
          "internalType": "string",
          "name": "_taskHash",
          "type": "string"
        }
      ],
      "name": "saveDailyHash",
      "outputs": [],
      "stateMutability": "nonpayable",
      "type": "function"
    }
  ],
  "bytecode": "0x6080604052348015600e575f5ffd5b505f80546001600160a01b031916331790556105eb8061002d5f395ff3fe608060405234801561000f575f5ffd5b506004361061003f575f3560e01c80635e788991146100435780637cbba33b1461006c5780638da5cb5b14610081575b5f5ffd5b610056610051366004610359565b6100ab565b60405161006391906103c1565b60405180910390f35b61007f61007a3660046103da565b610159565b005b5f54610093906001600160a01b031681565b6040516001600160a01b039091168152602001610063565b60606001826040516100bd919061043f565b908152602001604051809103902080546100d690610455565b80601f016020809104026020016040519081016040528092919081815260200182805461010290610455565b801561014d5780601f106101245761010080835404028352916020019161014d565b820191905f5260205f20905b81548152906001019060200180831161013057829003601f168201915b50505050509050919050565b5f546001600160a01b031633146101c35760405162461bcd60e51b8152602060048201526024808201527f4373616b20612074756c616a646f6e6f7320286261636b656e6429206d656e746044820152636865742160e01b60648201526084015b60405180910390fd5b6001826040516101d3919061043f565b908152602001604051809103902080546101ec90610455565b15905061023b5760405162461bcd60e51b815260206004820152601c60248201527f457a656e2061206e61706f6e206d61722076616e206d656e746573210000000060448201526064016101ba565b8060018360405161024c919061043f565b9081526020016040518091039020908161026691906104d9565b5081604051610275919061043f565b60405180910390207f551438b40aae939d1aa8dacbeb4c905121f1f2537c5fdcdf36fe0973a1a6129c82426040516102ae929190610594565b60405180910390a25050565b634e487b7160e01b5f52604160045260245ffd5b5f82601f8301126102dd575f5ffd5b813567ffffffffffffffff8111156102f7576102f76102ba565b604051601f8201601f19908116603f0116810167ffffffffffffffff81118282101715610326576103266102ba565b60405281815283820160200185101561033d575f5ffd5b816020850160208301375f918101602001919091529392505050565b5f60208284031215610369575f5ffd5b813567ffffffffffffffff81111561037f575f5ffd5b61038b848285016102ce565b949350505050565b5f81518084528060208401602086015e5f602082860101526020601f19601f83011685010191505092915050565b602081525f6103d36020830184610393565b9392505050565b5f5f604083850312156103eb575f5ffd5b823567ffffffffffffffff811115610401575f5ffd5b61040d858286016102ce565b925050602083013567ffffffffffffffff811115610429575f5ffd5b610435858286016102ce565b9150509250929050565b5f82518060208501845e5f920191825250919050565b600181811c9082168061046957607f821691505b60208210810361048757634e487b7160e01b5f52602260045260245ffd5b50919050565b601f8211156104d457805f5260205f20601f840160051c810160208510156104b25750805b601f840160051c820191505b818110156104d1575f81556001016104be565b50505b505050565b815167ffffffffffffffff8111156104f3576104f36102ba565b610507816105018454610455565b8461048d565b6020601f821160018114610539575f83156105225750848201515b5f19600385901b1c1916600184901b1784556104d1565b5f84815260208120601f198516915b828110156105685787850151825560209485019460019092019101610548565b508482101561058557868401515f19600387901b60f8161c191681555b50505050600190811b01905550565b604081525f6105a66040830185610393565b9050826020830152939250505056fea26469706673582212209a8fe29e8e2c561d9216d92dca441ac5d02ca6ee5da65195077e81b78243f98464736f6c634300081c0033",
  "linkReferences": {},
  "deployedLinkReferences": {},
  "immutableReferences": {},
  "inputSourceName": "project/contracts/DailyTaskLogger.sol",
  "buildInfoId": "solc-0_8_28-d9096b4c8d68cf42a13e287dedfd967c917c2fc3"
}